{
  "address": "0x8A19256DCc17E74B82DE2d5d1e541ab44561D40d",
  "abi": [
    {
      "anonymous": false,
      "inputs": [
        {
          "indexed": false,
          "internalType": "address",
          "name": "account",
          "type": "address"
        },
        {
          "indexed": false,
          "internalType": "uint256",
          "name": "value",
          "type": "uint256"
        }
      ],
      "name": "ETHAdded",
      "type": "event"
    },
    {
      "anonymous": false,
      "inputs": [
        {
          "indexed": false,
          "internalType": "address",
          "name": "account",
          "type": "address"
        },
        {
          "indexed": false,
          "internalType": "uint256",
          "name": "amount",
          "type": "uint256"
        }
      ],
      "name": "LPStaked",
      "type": "event"
    },
    {
      "anonymous": false,
      "inputs": [
        {
          "indexed": false,
          "internalType": "string",
          "name": "message",
          "type": "string"
        },
        {
          "indexed": false,
          "internalType": "uint256",
          "name": "value",
          "type": "uint256"
        }
      ],
      "name": "Log",
      "type": "event"
    },
    {
      "anonymous": false,
      "inputs": [
        {
          "indexed": false,
          "internalType": "address",
          "name": "account",
          "type": "address"
        },
        {
          "indexed": false,
          "internalType": "uint256",
          "name": "amount",
          "type": "uint256"
        }
      ],
      "name": "RewardClaimed",
      "type": "event"
    },
    {
      "anonymous": false,
      "inputs": [
        {
          "indexed": true,
          "internalType": "bytes32",
          "name": "role",
          "type": "bytes32"
        },
        {
          "indexed": true,
          "internalType": "bytes32",
          "name": "previousAdminRole",
          "type": "bytes32"
        },
        {
          "indexed": true,
          "internalType": "bytes32",
          "name": "newAdminRole",
          "type": "bytes32"
        }
      ],
      "name": "RoleAdminChanged",
      "type": "event"
    },
    {
      "anonymous": false,
      "inputs": [
        {
          "indexed": true,
          "internalType": "bytes32",
          "name": "role",
          "type": "bytes32"
        },
        {
          "indexed": true,
          "internalType": "address",
          "name": "account",
          "type": "address"
        },
        {
          "indexed": true,
          "internalType": "address",
          "name": "sender",
          "type": "address"
        }
      ],
      "name": "RoleGranted",
      "type": "event"
    },
    {
      "anonymous": false,
      "inputs": [
        {
          "indexed": true,
          "internalType": "bytes32",
          "name": "role",
          "type": "bytes32"
        },
        {
          "indexed": true,
          "internalType": "address",
          "name": "account",
          "type": "address"
        },
        {
          "indexed": true,
          "internalType": "address",
          "name": "sender",
          "type": "address"
        }
      ],
      "name": "RoleRevoked",
      "type": "event"
    },
    {
      "inputs": [],
      "name": "ADMIN_ROLE",
      "outputs": [
        {
          "internalType": "bytes32",
          "name": "",
          "type": "bytes32"
        }
      ],
      "stateMutability": "view",
      "type": "function"
    },
    {
      "inputs": [],
      "name": "DAI",
      "outputs": [
        {
          "internalType": "address",
          "name": "",
          "type": "address"
        }
      ],
      "stateMutability": "view",
      "type": "function"
    },
    {
      "inputs": [],
      "name": "DEFAULT_ADMIN_ROLE",
      "outputs": [
        {
          "internalType": "bytes32",
          "name": "",
          "type": "bytes32"
        }
      ],
      "stateMutability": "view",
      "type": "function"
    },
    {
      "inputs": [],
      "name": "FACTORY",
      "outputs": [
        {
          "internalType": "address",
          "name": "",
          "type": "address"
        }
      ],
      "stateMutability": "view",
      "type": "function"
    },
    {
      "inputs": [],
      "name": "ROUTER",
      "outputs": [
        {
          "internalType": "address",
          "name": "",
          "type": "address"
        }
      ],
      "stateMutability": "view",
      "type": "function"
    },
    {
      "inputs": [
        {
          "internalType": "address",
          "name": "",
          "type": "address"
        }
      ],
      "name": "balances",
      "outputs": [
        {
          "internalType": "uint256",
          "name": "",
          "type": "uint256"
        }
      ],
      "stateMutability": "view",
      "type": "function"
    },
    {
      "inputs": [],
      "name": "dai",
      "outputs": [
        {
          "internalType": "contract IERC20",
          "name": "",
          "type": "address"
        }
      ],
      "stateMutability": "view",
      "type": "function"
    },
    {
      "inputs": [
        {
          "internalType": "address",
          "name": "account",
          "type": "address"
        }
      ],
      "name": "earned",
      "outputs": [
        {
          "internalType": "uint256",
          "name": "",
          "type": "uint256"
        }
      ],
      "stateMutability": "view",
      "type": "function"
    },
    {
      "inputs": [],
      "name": "factory",
      "outputs": [
        {
          "internalType": "contract IUniswapV2Factory",
          "name": "",
          "type": "address"
        }
      ],
      "stateMutability": "view",
      "type": "function"
    },
    {
      "inputs": [
        {
          "internalType": "uint256",
          "name": "r",
          "type": "uint256"
        },
        {
          "internalType": "uint256",
          "name": "a",
          "type": "uint256"
        }
      ],
      "name": "getAmount",
      "outputs": [
        {
          "internalType": "uint256",
          "name": "",
          "type": "uint256"
        }
      ],
      "stateMutability": "pure",
      "type": "function"
    },
    {
      "inputs": [],
      "name": "getReward",
      "outputs": [],
      "stateMutability": "nonpayable",
      "type": "function"
    },
    {
      "inputs": [
        {
          "internalType": "bytes32",
          "name": "role",
          "type": "bytes32"
        }
      ],
      "name": "getRoleAdmin",
      "outputs": [
        {
          "internalType": "bytes32",
          "name": "",
          "type": "bytes32"
        }
      ],
      "stateMutability": "view",
      "type": "function"
    },
    {
      "inputs": [
        {
          "internalType": "bytes32",
          "name": "role",
          "type": "bytes32"
        },
        {
          "internalType": "address",
          "name": "account",
          "type": "address"
        }
      ],
      "name": "grantRole",
      "outputs": [],
      "stateMutability": "nonpayable",
      "type": "function"
    },
    {
      "inputs": [
        {
          "internalType": "bytes32",
          "name": "role",
          "type": "bytes32"
        },
        {
          "internalType": "address",
          "name": "account",
          "type": "address"
        }
      ],
      "name": "hasRole",
      "outputs": [
        {
          "internalType": "bool",
          "name": "",
          "type": "bool"
        }
      ],
      "stateMutability": "view",
      "type": "function"
    },
    {
      "inputs": [
        {
          "internalType": "address",
          "name": "_ROUTER",
          "type": "address"
        },
        {
          "internalType": "address",
          "name": "_FACTORY",
          "type": "address"
        },
        {
          "internalType": "address",
          "name": "_DAI",
          "type": "address"
        },
        {
          "internalType": "address",
          "name": "_stakingToken",
          "type": "address"
        },
        {
          "internalType": "address",
          "name": "_rewardsToken",
          "type": "address"
        }
      ],
      "name": "initialize",
      "outputs": [],
      "stateMutability": "nonpayable",
      "type": "function"
    },
    {
      "inputs": [],
      "name": "lastUpdateTime",
      "outputs": [
        {
          "internalType": "uint256",
          "name": "",
          "type": "uint256"
        }
      ],
      "stateMutability": "view",
      "type": "function"
    },
    {
      "inputs": [
        {
          "internalType": "bytes32",
          "name": "role",
          "type": "bytes32"
        },
        {
          "internalType": "address",
          "name": "account",
          "type": "address"
        }
      ],
      "name": "renounceRole",
      "outputs": [],
      "stateMutability": "nonpayable",
      "type": "function"
    },
    {
      "inputs": [
        {
          "internalType": "bytes32",
          "name": "role",
          "type": "bytes32"
        },
        {
          "internalType": "address",
          "name": "account",
          "type": "address"
        }
      ],
      "name": "revokeRole",
      "outputs": [],
      "stateMutability": "nonpayable",
      "type": "function"
    },
    {
      "inputs": [],
      "name": "rewardPerToken",
      "outputs": [
        {
          "internalType": "uint256",
          "name": "",
          "type": "uint256"
        }
      ],
      "stateMutability": "view",
      "type": "function"
    },
    {
      "inputs": [],
      "name": "rewardPerTokenStored",
      "outputs": [
        {
          "internalType": "uint256",
          "name": "",
          "type": "uint256"
        }
      ],
      "stateMutability": "view",
      "type": "function"
    },
    {
      "inputs": [],
      "name": "rewardRate",
      "outputs": [
        {
          "internalType": "uint256",
          "name": "",
          "type": "uint256"
        }
      ],
      "stateMutability": "view",
      "type": "function"
    },
    {
      "inputs": [
        {
          "internalType": "address",
          "name": "",
          "type": "address"
        }
      ],
      "name": "rewards",
      "outputs": [
        {
          "internalType": "uint256",
          "name": "",
          "type": "uint256"
        }
      ],
      "stateMutability": "view",
      "type": "function"
    },
    {
      "inputs": [],
      "name": "rewardsToken",
      "outputs": [
        {
          "internalType": "contract IERC20Upgradeable",
          "name": "",
          "type": "address"
        }
      ],
      "stateMutability": "view",
      "type": "function"
    },
    {
      "inputs": [],
      "name": "router",
      "outputs": [
        {
          "internalType": "contract IUniswapV2Router02",
          "name": "",
          "type": "address"
        }
      ],
      "stateMutability": "view",
      "type": "function"
    },
    {
      "inputs": [
        {
          "internalType": "address",
          "name": "_DAI",
          "type": "address"
        }
      ],
      "name": "setDAI",
      "outputs": [],
      "stateMutability": "nonpayable",
      "type": "function"
    },
    {
      "inputs": [
        {
          "internalType": "address",
          "name": "_FACTORY",
          "type": "address"
        }
      ],
      "name": "setFactory",
      "outputs": [],
      "stateMutability": "nonpayable",
      "type": "function"
    },
    {
      "inputs": [
        {
          "internalType": "uint256",
          "name": "_rewardRate",
          "type": "uint256"
        }
      ],
      "name": "setRewardRate",
      "outputs": [],
      "stateMutability": "nonpayable",
      "type": "function"
    },
    {
      "inputs": [
        {
          "internalType": "address",
          "name": "_rewardsToken",
          "type": "address"
        }
      ],
      "name": "setRewardsToken",
      "outputs": [],
      "stateMutability": "nonpayable",
      "type": "function"
    },
    {
      "inputs": [
        {
          "internalType": "address",
          "name": "_ROUTER",
          "type": "address"
        }
      ],
      "name": "setRouter",
      "outputs": [],
      "stateMutability": "nonpayable",
      "type": "function"
    },
    {
      "inputs": [
        {
          "internalType": "address",
          "name": "_stakingToken",
          "type": "address"
        }
      ],
      "name": "setStakingToken",
      "outputs": [],
      "stateMutability": "nonpayable",
      "type": "function"
    },
    {
      "inputs": [
        {
          "internalType": "uint256",
          "name": "_amount",
          "type": "uint256"
        },
        {
          "internalType": "uint256",
          "name": "deadline",
          "type": "uint256"
        },
        {
          "internalType": "bytes",
          "name": "sig",
          "type": "bytes"
        }
      ],
      "name": "stakeLPWithPermit",
      "outputs": [],
      "stateMutability": "nonpayable",
      "type": "function"
    },
    {
      "inputs": [
        {
          "internalType": "uint256",
          "name": "_amount",
          "type": "uint256"
        }
      ],
      "name": "stakeLPWithoutPermit",
      "outputs": [],
      "stateMutability": "nonpayable",
      "type": "function"
    },
    {
      "inputs": [],
      "name": "stakingToken",
      "outputs": [
        {
          "internalType": "contract IUniswapV2ERC20",
          "name": "",
          "type": "address"
        }
      ],
      "stateMutability": "view",
      "type": "function"
    },
    {
      "inputs": [
        {
          "internalType": "bytes4",
          "name": "interfaceId",
          "type": "bytes4"
        }
      ],
      "name": "supportsInterface",
      "outputs": [
        {
          "internalType": "bool",
          "name": "",
          "type": "bool"
        }
      ],
      "stateMutability": "view",
      "type": "function"
    },
    {
      "inputs": [],
      "name": "swapAddLiquidityAndReturnLP",
      "outputs": [],
      "stateMutability": "payable",
      "type": "function"
    },
    {
      "inputs": [],
      "name": "swapAddLiquidityAndStakeLP",
      "outputs": [],
      "stateMutability": "payable",
      "type": "function"
    },
    {
      "inputs": [],
      "name": "totalSupply",
      "outputs": [
        {
          "internalType": "uint256",
          "name": "",
          "type": "uint256"
        }
      ],
      "stateMutability": "view",
      "type": "function"
    },
    {
      "inputs": [
        {
          "internalType": "address",
          "name": "",
          "type": "address"
        }
      ],
      "name": "userRewardPerTokenPaid",
      "outputs": [
        {
          "internalType": "uint256",
          "name": "",
          "type": "uint256"
        }
      ],
      "stateMutability": "view",
      "type": "function"
    },
    {
      "inputs": [
        {
          "internalType": "uint256",
          "name": "_amount",
          "type": "uint256"
        }
      ],
      "name": "withdraw",
      "outputs": [],
      "stateMutability": "nonpayable",
      "type": "function"
    },
    {
      "stateMutability": "payable",
      "type": "receive"
    }
  ],
  "transactionHash": "0xc9632938bc758ce7cc7c06b175dda2e0d2f0405a80ef3d0fc075c493c5956d90",
  "args": [],
  "numDeployments": 3,
  "solcInputHash": "30a5292813b0b110e611e63bdabc431b",
  "bytecode": "0x608060405234801561001057600080fd5b5061227d806100206000396000f3fe6080604052600436106102335760003560e01c80637b0a47ee1161012e578063c8f33c91116100ab578063df136d651161006f578063df136d65146106a4578063e0bab4c4146106ba578063ea246827146106da578063f4b9fa75146106e2578063f887ea401461070257600080fd5b8063c8f33c9114610619578063cd3daf9d1461062f578063d1af0c7d14610644578063d547741f14610664578063de320cc11461068457600080fd5b80639e447fc6116100f25780639e447fc614610584578063a217fddf146105a4578063b97dbf59146105b9578063c0d78655146105d9578063c45a0155146105f957600080fd5b80637b0a47ee146104f9578063809b0c2d1461050f5780638408b5ac146105175780638b8763471461053757806391d148541461056457600080fd5b80632e1a7d4d116101bc5780634ca98997116101805780634ca98997146104575780634fab6978146104775780635bb478081461049757806372f702f3146104b757806375b238fc146104d757600080fd5b80632e1a7d4d146103bc5780632f2ff15d146103dc57806332fe7b26146103fc57806336568abe146104225780633d18b9121461044257600080fd5b806318160ddd1161020357806318160ddd146102f15780631e9b12ef14610307578063248a9ca31461032757806327e235e3146103575780632dd310001461038457600080fd5b80628cc2621461023f57806301ffc9a7146102725780630700037d146102a25780631459457a146102cf57600080fd5b3661023a57005b600080fd5b34801561024b57600080fd5b5061025f61025a366004611d48565b610722565b6040519081526020015b60405180910390f35b34801561027e57600080fd5b5061029261028d366004611d65565b6107ad565b6040519015158152602001610269565b3480156102ae57600080fd5b5061025f6102bd366004611d48565b600d6020526000908152604090205481565b3480156102db57600080fd5b506102ef6102ea366004611d8f565b6107e2565b005b3480156102fd57600080fd5b5061025f600b5481565b34801561031357600080fd5b506102ef610322366004611d48565b610910565b34801561033357600080fd5b5061025f610342366004611e00565b60009081526073602052604090206001015490565b34801561036357600080fd5b5061025f610372366004611d48565b600e6020526000908152604090205481565b34801561039057600080fd5b506001546103a4906001600160a01b031681565b6040516001600160a01b039091168152602001610269565b3480156103c857600080fd5b506102ef6103d7366004611e00565b61094c565b3480156103e857600080fd5b506102ef6103f7366004611e19565b610a59565b34801561040857600080fd5b506000546103a4906201000090046001600160a01b031681565b34801561042e57600080fd5b506102ef61043d366004611e19565b610a7f565b34801561044e57600080fd5b506102ef610afd565b34801561046357600080fd5b5061025f610472366004611e49565b610bee565b34801561048357600080fd5b506102ef610492366004611e81565b610c4f565b3480156104a357600080fd5b506102ef6104b2366004611d48565b610c70565b3480156104c357600080fd5b506007546103a4906001600160a01b031681565b3480156104e357600080fd5b5061025f60008051602061222883398151915281565b34801561050557600080fd5b5061025f60085481565b6102ef610cb6565b34801561052357600080fd5b506102ef610532366004611e00565b610cfc565b34801561054357600080fd5b5061025f610552366004611d48565b600c6020526000908152604090205481565b34801561057057600080fd5b5061029261057f366004611e19565b610d08565b34801561059057600080fd5b506102ef61059f366004611e00565b610d33565b3480156105b057600080fd5b5061025f600081565b3480156105c557600080fd5b506102ef6105d4366004611d48565b610d52565b3480156105e557600080fd5b506102ef6105f4366004611d48565b610d98565b34801561060557600080fd5b506004546103a4906001600160a01b031681565b34801561062557600080fd5b5061025f60095481565b34801561063b57600080fd5b5061025f610dfa565b34801561065057600080fd5b506006546103a4906001600160a01b031681565b34801561067057600080fd5b506102ef61067f366004611e19565b610e58565b34801561069057600080fd5b506102ef61069f366004611d48565b610e7e565b3480156106b057600080fd5b5061025f600a5481565b3480156106c657600080fd5b506002546103a4906001600160a01b031681565b6102ef610eba565b3480156106ee57600080fd5b506005546103a4906001600160a01b031681565b34801561070e57600080fd5b506003546103a4906001600160a01b031681565b6001600160a01b0381166000908152600c6020526040812054670de0b6b3a76400009061074d610dfa565b6107579190611f5b565b6001600160a01b0384166000908152600e602052604090205461077a9190611f72565b6107849190611f91565b6001600160a01b0383166000908152600d60205260409020546107a79190611fb3565b92915050565b60006001600160e01b03198216637965db0b60e01b14806107a757506301ffc9a760e01b6001600160e01b03198316146107a7565b600054610100900460ff166107fd5760005460ff1615610801565b303b155b6108695760405162461bcd60e51b815260206004820152602e60248201527f496e697469616c697a61626c653a20636f6e747261637420697320616c72656160448201526d191e481a5b9a5d1a585b1a5e995960921b60648201526084015b60405180910390fd5b600054610100900460ff1615801561088b576000805461ffff19166101011790555b610893610f0d565b6108ab60008051602061222883398151915233610f7a565b6108b3610f0d565b6108bb610f0d565b6108c486610d98565b6108cd85610c70565b6108d684610d52565b6108df83610910565b6108e882610e7e565b6108f26064610d33565b426009558015610908576000805461ff00191690555b505050505050565b6000805160206122288339815191526109298133610f84565b50600780546001600160a01b0319166001600160a01b0392909216919091179055565b33610955610dfa565b600a554260095561096581610722565b6001600160a01b0382166000908152600d6020908152604080832093909355600a54600c825283832055338252600e905220548211156109a457600080fd5b81600b60008282546109b69190611f5b565b9091555050336000908152600e6020526040812080548492906109da908490611f5b565b909155505060075460405163a9059cbb60e01b8152336004820152602481018490526001600160a01b039091169063a9059cbb906044016020604051808303816000875af1158015610a30573d6000803e3d6000fd5b505050506040513d601f19601f82011682018060405250810190610a549190611fcb565b505050565b600082815260736020526040902060010154610a758133610f84565b610a548383610fe8565b6001600160a01b0381163314610aef5760405162461bcd60e51b815260206004820152602f60248201527f416363657373436f6e74726f6c3a2063616e206f6e6c792072656e6f756e636560448201526e103937b632b9903337b91039b2b63360891b6064820152608401610860565b610af9828261106e565b5050565b33610b06610dfa565b600a5542600955610b1681610722565b6001600160a01b038281166000908152600d6020818152604080842095909555600a54600c82528584205533808452919052838220805492905560065493516340c10f1960e01b81526004810191909152602481018290529092909116906340c10f1990604401600060405180830381600087803b158015610b9757600080fd5b505af1158015610bab573d6000803e3d6000fd5b505060408051338152602081018590527f106f923f993c2149d49b4255ff723acafa1f2d94393f561d3eda32ae348f724193500190505b60405180910390a15050565b60006107ca610c3e610c02856107cd6110d5565b610c38610c33610c1587623cda206110d5565b610c2289623cda296110d5565b610c2c9190611fb3565b88906110d5565b6110e1565b90611151565b610c489190611f91565b9392505050565b6000806000610c5d8461115d565b92509250925061090886868585856111c5565b600080516020612228833981519152610c898133610f84565b50600180546001600160a01b039092166001600160a01b0319928316811790915560048054909216179055565b610cc1346001611394565b50604080513381523460208201527f63174dd56e96201020dbc03d02ea38cbd73931d1f2858371beaea544dc5406ee910160405180910390a1565b610d058161199a565b50565b60009182526073602090815260408084206001600160a01b0393909316845291905290205460ff1690565b600080516020612228833981519152610d4c8133610f84565b50600855565b600080516020612228833981519152610d6b8133610f84565b50600280546001600160a01b039092166001600160a01b0319928316811790915560058054909216179055565b600080516020612228833981519152610db18133610f84565b506000805462010000600160b01b031916620100006001600160a01b039384168102919091179182905560038054919092049092166001600160a01b0319909216919091179055565b6000600b54600003610e0d5750600a5490565b600b54600854600954610e209042611f5b565b610e2a9190611f72565b610e3c90670de0b6b3a7640000611f72565b610e469190611f91565b600a54610e539190611fb3565b905090565b600082815260736020526040902060010154610e748133610f84565b610a54838361106e565b600080516020612228833981519152610e978133610f84565b50600680546001600160a01b0319166001600160a01b0392909216919091179055565b6000610ec7346000611394565b9050610ed281611ad6565b604080513381523460208201527f63174dd56e96201020dbc03d02ea38cbd73931d1f2858371beaea544dc5406ee910160405180910390a150565b600054610100900460ff16610f785760405162461bcd60e51b815260206004820152602b60248201527f496e697469616c697a61626c653a20636f6e7472616374206973206e6f74206960448201526a6e697469616c697a696e6760a81b6064820152608401610860565b565b610af98282610fe8565b610f8e8282610d08565b610af957610fa6816001600160a01b03166014611adf565b610fb1836020611adf565b604051602001610fc292919061201d565b60408051601f198184030181529082905262461bcd60e51b825261086091600401612092565b610ff28282610d08565b610af95760008281526073602090815260408083206001600160a01b03851684529091529020805460ff1916600117905561102a3390565b6001600160a01b0316816001600160a01b0316837f2f8788117e7eff1d82e926ec794901d17c78024a50270940304540a733656f0d60405160405180910390a45050565b6110788282610d08565b15610af95760008281526073602090815260408083206001600160a01b0385168085529252808320805460ff1916905551339285917ff6391f5c32d9c69d2a47ea670b442974b53935d1edc7fd64eb21e047a839171b9190a45050565b6000610c488284611f72565b6000600382111561114257508060006110fb600283611f91565b611106906001611fb3565b90505b8181101561113c579050806002816111218186611f91565b61112b9190611fb3565b6111359190611f91565b9050611109565b50919050565b811561114c575060015b919050565b6000610c488284611f5b565b600080600083516041146111a75760405162461bcd60e51b8152602060048201526011602482015270696e76616c6964207369676e617475726560781b6044820152606401610860565b50505060208101516040820151606090920151909260009190911a90565b336111ce610dfa565b600a55426009556111de81610722565b6001600160a01b0382166000908152600d6020908152604080832093909355600a54600c90915291812091909155600b805488929061121e908490611fb3565b9091555050336000908152600e602052604081208054889290611242908490611fb3565b909155505060075460405163d505accf60e01b8152336004820152306024820152604481018890526064810187905260ff8416608482015260a4810186905260c481018590526001600160a01b039091169063d505accf9060e401600060405180830381600087803b1580156112b757600080fd5b505af11580156112cb573d6000803e3d6000fd5b50506007546040516323b872dd60e01b8152336004820152306024820152604481018a90526001600160a01b0390911692506323b872dd91506064016020604051808303816000875af1158015611326573d6000803e3d6000fd5b505050506040513d601f19601f8201168201806040525081019061134a9190611fcb565b61135357600080fd5b60408051338152602081018890527fc1306d9275a34df20314ffe630eec81736198b8c61f254d5cd80a9b0c9f1171f910160405180910390a1505050505050565b60048054600354604080516315ab88c960e31b8152905160009485946001600160a01b039081169463e6a439059491169263ad5c4648928281019260209291908290030181865afa1580156113ed573d6000803e3d6000fd5b505050506040513d601f19601f8201168201806040525081019061141191906120c5565b60025460405160e084901b6001600160e01b03191681526001600160a01b03928316600482015291166024820152604401602060405180830381865afa15801561145f573d6000803e3d6000fd5b505050506040513d601f19601f8201168201806040525081019061148391906120c5565b90506000816001600160a01b0316630902f1ac6040518163ffffffff1660e01b8152600401606060405180830381865afa1580156114c5573d6000803e3d6000fd5b505050506040513d601f19601f820116820180604052508101906114e991906120f9565b50506001600160701b0316905060006115028287610bee565b905060006115108288611f5b565b6005546040516370a0823160e01b81523060048201529192506000916001600160a01b03909116906370a0823190602401602060405180830381865afa15801561155e573d6000803e3d6000fd5b505050506040513d601f19601f820116820180604052508101906115829190612149565b60408051600280825260608201835292935060009290916020830190803683375050600354604080516315ab88c960e31b815290519394506001600160a01b039091169263ad5c4648925060048083019260209291908290030181865afa1580156115f1573d6000803e3d6000fd5b505050506040513d601f19601f8201168201806040525081019061161591906120c5565b8160008151811061162857611628612162565b6001600160a01b03928316602091820292909201015260025482519116908290600190811061165957611659612162565b6001600160a01b03928316602091820292909201015260035460405163b6f9de9560e01b815291169063b6f9de9590869061169f90600190869030904290600401612178565b6000604051808303818588803b1580156116b857600080fd5b505af11580156116cc573d6000803e3d6000fd5b50506005546040516370a0823160e01b8152306004820152600094506001600160a01b0390911692506370a082319150602401602060405180830381865afa15801561171c573d6000803e3d6000fd5b505050506040513d601f19601f820116820180604052508101906117409190612149565b9050600061174e8483611f5b565b60055460005460405163095ea7b360e01b81526001600160a01b03620100009092048216600482015260248101849052929350169063095ea7b3906044016020604051808303816000875af11580156117ab573d6000803e3d6000fd5b505050506040513d601f19601f820116820180604052508101906117cf9190611fcb565b5060008a6117dd57306117df565b335b60035460025460405163f305d71960e01b81526001600160a01b03918216600482015260248101869052600160448201819052606482015281841660848201524260a482015292935060009283928392169063f305d719908b9060c40160606040518083038185885af115801561185a573d6000803e3d6000fd5b50505050506040513d601f19601f8201168201806040525081019061187f91906121e2565b9250925092507fdd970dd9b5bfe707922155b058a407655cb18288b807e2216442bca8ad83d6b5836040516118db91906040808252600a908201526911105248185b5bdd5b9d60b21b6060820152602081019190915260800190565b60405180910390a160408051818152600a818301526911551208185b5bdd5b9d60b21b60608201526020810184905290517fdd970dd9b5bfe707922155b058a407655cb18288b807e2216442bca8ad83d6b59181900360800190a160408051818152600981830152686c697175696469747960b81b60608201526020810183905290517fdd970dd9b5bfe707922155b058a407655cb18288b807e2216442bca8ad83d6b59181900360800190a19e9d5050505050505050505050505050565b336119a3610dfa565b600a55426009556119b381610722565b6001600160a01b0382166000908152600d6020908152604080832093909355600a54600c90915291812091909155600b80548492906119f3908490611fb3565b9091555050336000908152600e602052604081208054849290611a17908490611fb3565b90915550506007546040516323b872dd60e01b8152336004820152306024820152604481018490526001600160a01b03909116906323b872dd906064016020604051808303816000875af1158015611a73573d6000803e3d6000fd5b505050506040513d601f19601f82011682018060405250810190611a979190611fcb565b611aa057600080fd5b60408051338152602081018490527fc1306d9275a34df20314ffe630eec81736198b8c61f254d5cd80a9b0c9f1171f9101610be2565b610d0581611c7b565b60606000611aee836002611f72565b611af9906002611fb3565b67ffffffffffffffff811115611b1157611b11611e6b565b6040519080825280601f01601f191660200182016040528015611b3b576020820181803683370190505b509050600360fc1b81600081518110611b5657611b56612162565b60200101906001600160f81b031916908160001a905350600f60fb1b81600181518110611b8557611b85612162565b60200101906001600160f81b031916908160001a9053506000611ba9846002611f72565b611bb4906001611fb3565b90505b6001811115611c2c576f181899199a1a9b1b9c1cb0b131b232b360811b85600f1660108110611be857611be8612162565b1a60f81b828281518110611bfe57611bfe612162565b60200101906001600160f81b031916908160001a90535060049490941c93611c2581612210565b9050611bb7565b508315610c485760405162461bcd60e51b815260206004820181905260248201527f537472696e67733a20686578206c656e67746820696e73756666696369656e746044820152606401610860565b33611c84610dfa565b600a5542600955611c9481610722565b6001600160a01b0382166000908152600d6020908152604080832093909355600a54600c90915291812091909155600b8054849290611cd4908490611fb3565b9091555050336000908152600e602052604081208054849290611cf8908490611fb3565b909155505060408051338152602081018490527fc1306d9275a34df20314ffe630eec81736198b8c61f254d5cd80a9b0c9f1171f9101610be2565b6001600160a01b0381168114610d0557600080fd5b600060208284031215611d5a57600080fd5b8135610c4881611d33565b600060208284031215611d7757600080fd5b81356001600160e01b031981168114610c4857600080fd5b600080600080600060a08688031215611da757600080fd5b8535611db281611d33565b94506020860135611dc281611d33565b93506040860135611dd281611d33565b92506060860135611de281611d33565b91506080860135611df281611d33565b809150509295509295909350565b600060208284031215611e1257600080fd5b5035919050565b60008060408385031215611e2c57600080fd5b823591506020830135611e3e81611d33565b809150509250929050565b60008060408385031215611e5c57600080fd5b50508035926020909101359150565b634e487b7160e01b600052604160045260246000fd5b600080600060608486031215611e9657600080fd5b8335925060208401359150604084013567ffffffffffffffff80821115611ebc57600080fd5b818601915086601f830112611ed057600080fd5b813581811115611ee257611ee2611e6b565b604051601f8201601f19908116603f01168101908382118183101715611f0a57611f0a611e6b565b81604052828152896020848701011115611f2357600080fd5b8260208601602083013760006020848301015280955050505050509250925092565b634e487b7160e01b600052601160045260246000fd5b600082821015611f6d57611f6d611f45565b500390565b6000816000190483118215151615611f8c57611f8c611f45565b500290565b600082611fae57634e487b7160e01b600052601260045260246000fd5b500490565b60008219821115611fc657611fc6611f45565b500190565b600060208284031215611fdd57600080fd5b81518015158114610c4857600080fd5b60005b83811015612008578181015183820152602001611ff0565b83811115612017576000848401525b50505050565b7f416363657373436f6e74726f6c3a206163636f756e7420000000000000000000815260008351612055816017850160208801611fed565b7001034b99036b4b9b9b4b733903937b6329607d1b6017918401918201528351612086816028840160208801611fed565b01602801949350505050565b60208152600082518060208401526120b1816040850160208701611fed565b601f01601f19169190910160400192915050565b6000602082840312156120d757600080fd5b8151610c4881611d33565b80516001600160701b038116811461114c57600080fd5b60008060006060848603121561210e57600080fd5b612117846120e2565b9250612125602085016120e2565b9150604084015163ffffffff8116811461213e57600080fd5b809150509250925092565b60006020828403121561215b57600080fd5b5051919050565b634e487b7160e01b600052603260045260246000fd5b600060808201868352602060808185015281875180845260a086019150828901935060005b818110156121c25784516001600160a01b03168352938301939183019160010161219d565b50506001600160a01b039690961660408501525050506060015292915050565b6000806000606084860312156121f757600080fd5b8351925060208401519150604084015190509250925092565b60008161221f5761221f611f45565b50600019019056fea49807205ce4d355092ef5a8a18f56e8913cf4a201fbe287825b095693c21775a2646970667358221220f3f59124f6eb3eee95bfa370e1746dac7c32c19dcf77961e2215c3c67c250a5064736f6c634300080d0033",
  "devdoc": {
    "kind": "dev",
    "methods": {
      "getAmount(uint256,uint256)": {
        "details": "according to the Uniswaps whitepaper and its maths, regarding to the swaps and fees the formula to calculate the swap before adding liquidity is s = (sqrt(((2-f)r)^2+4(1-f)ar)-(2-f)r)/(2(1-f)) where s = optimal swap amount r = amount of reserve of token a a = amount of token a the user has f = swap fee percent With the actual fee of 0.3% or 3/1000 we have that the final result is the one inside the  function.",
        "params": {
          "a": "amount of token a the user has",
          "r": "amount of reserve of token a"
        }
      },
      "getRoleAdmin(bytes32)": {
        "details": "Returns the admin role that controls `role`. See {grantRole} and {revokeRole}. To change a role's admin, use {_setRoleAdmin}."
      },
      "grantRole(bytes32,address)": {
        "details": "Grants `role` to `account`. If `account` had not been already granted `role`, emits a {RoleGranted} event. Requirements: - the caller must have ``role``'s admin role."
      },
      "hasRole(bytes32,address)": {
        "details": "Returns `true` if `account` has been granted `role`."
      },
      "initialize(address,address,address,address,address)": {
        "details": "This address is the required by UniSwap for swaps between tokens and ETH",
        "params": {
          "_DAI": "is the address of the DAI Token",
          "_FACTORY": "is the address of the Uniswap Factory V2",
          "_ROUTER": "is the address of the Uniswap Router V2"
        }
      },
      "renounceRole(bytes32,address)": {
        "details": "Revokes `role` from the calling account. Roles are often managed via {grantRole} and {revokeRole}: this function's purpose is to provide a mechanism for accounts to lose their privileges if they are compromised (such as when a trusted device is misplaced). If the calling account had been revoked `role`, emits a {RoleRevoked} event. Requirements: - the caller must be `account`."
      },
      "revokeRole(bytes32,address)": {
        "details": "Revokes `role` from `account`. If `account` had been granted `role`, emits a {RoleRevoked} event. Requirements: - the caller must have ``role``'s admin role."
      },
      "stakeLPWithPermit(uint256,uint256,bytes)": {
        "details": "This function doesn't require the user to do an Approval transaction beforeThis function require a signature by the user in the off-chain",
        "params": {
          "_amount": "is a uint which is the amount of LP Tokens to be staked"
        }
      },
      "stakeLPWithoutPermit(uint256)": {
        "details": "This function require the user to do an Approval transaction before",
        "params": {
          "_amount": "is a uint which is the amount of LP Tokens to be staked"
        }
      },
      "supportsInterface(bytes4)": {
        "details": "See {IERC165-supportsInterface}."
      },
      "swapAddLiquidityAndReturnLP()": {
        "details": "only adds liquidity to the ETH / DAI pool"
      },
      "swapAddLiquidityAndStakeLP()": {
        "details": "only adds liquidity to the ETH / DAI pool"
      },
      "withdraw(uint256)": {
        "params": {
          "_amount": "is a uint with the amount of LP Tokens to be withdrawed"
        }
      }
    },
    "version": 1
  },
  "userdoc": {
    "events": {
      "Log(string,uint256)": {
        "notice": "EVENTS "
      },
      "RewardClaimed(address,uint256)": {
        "notice": "EVENTS"
      }
    },
    "kind": "user",
    "methods": {
      "ADMIN_ROLE()": {
        "notice": "CONSTANTS"
      },
      "getAmount(uint256,uint256)": {
        "notice": "an auxiliar function to get the optimal swap amount to add liquidity"
      },
      "getReward()": {
        "notice": "Function that allows a user to withdraw his Reward tokens"
      },
      "initialize(address,address,address,address,address)": {
        "notice": "Function initializer of this upgradeable contract"
      },
      "rewardPerToken()": {
        "notice": "functions to calculate rewards and earnings"
      },
      "rewardsToken()": {
        "notice": "VARIABLES"
      },
      "setDAI(address)": {
        "notice": "Setter function for DAI"
      },
      "setFactory(address)": {
        "notice": "Setter function for FACTORY"
      },
      "setRewardRate(uint256)": {
        "notice": "Setter function for Reward Rate"
      },
      "setRewardsToken(address)": {
        "notice": "Setter function for Rewards Token"
      },
      "setRouter(address)": {
        "notice": "Setter function for ROUTER"
      },
      "setStakingToken(address)": {
        "notice": "Setter function for Staking Token"
      },
      "stakeLPWithPermit(uint256,uint256,bytes)": {
        "notice": "Function used to stake LP tokens already owned by the user"
      },
      "stakeLPWithoutPermit(uint256)": {
        "notice": "Function used to stake LP tokens already owned by the user"
      },
      "swapAddLiquidityAndReturnLP()": {
        "notice": "the main function to swap and add liquiditythis function returns the LP Tokens to the msg sender"
      },
      "swapAddLiquidityAndStakeLP()": {
        "notice": "the main function to swap and add liquiditythis function returns the LP Tokens to the msg sender"
      },
      "userRewardPerTokenPaid(address)": {
        "notice": "MAPPINGS"
      },
      "withdraw(uint256)": {
        "notice": "Function that allows a user to withdraw his LP Tokens staked in the contract"
      }
    },
    "version": 1
  },
  "storageLayout": {
    "storage": [
      {
        "astId": 408,
        "contract": "contracts/LPStacking.sol:LPStaking",
        "label": "_initialized",
        "offset": 0,
        "slot": "0",
        "type": "t_bool"
      },
      {
        "astId": 411,
        "contract": "contracts/LPStacking.sol:LPStaking",
        "label": "_initializing",
        "offset": 1,
        "slot": "0",
        "type": "t_bool"
      },
      {
        "astId": 3243,
        "contract": "contracts/LPStacking.sol:LPStaking",
        "label": "ROUTER",
        "offset": 2,
        "slot": "0",
        "type": "t_address"
      },
      {
        "astId": 3245,
        "contract": "contracts/LPStacking.sol:LPStaking",
        "label": "FACTORY",
        "offset": 0,
        "slot": "1",
        "type": "t_address"
      },
      {
        "astId": 3247,
        "contract": "contracts/LPStacking.sol:LPStaking",
        "label": "DAI",
        "offset": 0,
        "slot": "2",
        "type": "t_address"
      },
      {
        "astId": 3250,
        "contract": "contracts/LPStacking.sol:LPStaking",
        "label": "router",
        "offset": 0,
        "slot": "3",
        "type": "t_contract(IUniswapV2Router02)2944"
      },
      {
        "astId": 3253,
        "contract": "contracts/LPStacking.sol:LPStaking",
        "label": "factory",
        "offset": 0,
        "slot": "4",
        "type": "t_contract(IUniswapV2Factory)2306"
      },
      {
        "astId": 3256,
        "contract": "contracts/LPStacking.sol:LPStaking",
        "label": "dai",
        "offset": 0,
        "slot": "5",
        "type": "t_contract(IERC20)1813"
      },
      {
        "astId": 3707,
        "contract": "contracts/LPStacking.sol:LPStaking",
        "label": "rewardsToken",
        "offset": 0,
        "slot": "6",
        "type": "t_contract(IERC20Upgradeable)4128"
      },
      {
        "astId": 3710,
        "contract": "contracts/LPStacking.sol:LPStaking",
        "label": "stakingToken",
        "offset": 0,
        "slot": "7",
        "type": "t_contract(IUniswapV2ERC20)2243"
      },
      {
        "astId": 3712,
        "contract": "contracts/LPStacking.sol:LPStaking",
        "label": "rewardRate",
        "offset": 0,
        "slot": "8",
        "type": "t_uint256"
      },
      {
        "astId": 3714,
        "contract": "contracts/LPStacking.sol:LPStaking",
        "label": "lastUpdateTime",
        "offset": 0,
        "slot": "9",
        "type": "t_uint256"
      },
      {
        "astId": 3716,
        "contract": "contracts/LPStacking.sol:LPStaking",
        "label": "rewardPerTokenStored",
        "offset": 0,
        "slot": "10",
        "type": "t_uint256"
      },
      {
        "astId": 3718,
        "contract": "contracts/LPStacking.sol:LPStaking",
        "label": "totalSupply",
        "offset": 0,
        "slot": "11",
        "type": "t_uint256"
      },
      {
        "astId": 3723,
        "contract": "contracts/LPStacking.sol:LPStaking",
        "label": "userRewardPerTokenPaid",
        "offset": 0,
        "slot": "12",
        "type": "t_mapping(t_address,t_uint256)"
      },
      {
        "astId": 3727,
        "contract": "contracts/LPStacking.sol:LPStaking",
        "label": "rewards",
        "offset": 0,
        "slot": "13",
        "type": "t_mapping(t_address,t_uint256)"
      },
      {
        "astId": 3731,
        "contract": "contracts/LPStacking.sol:LPStaking",
        "label": "balances",
        "offset": 0,
        "slot": "14",
        "type": "t_mapping(t_address,t_uint256)"
      },
      {
        "astId": 1475,
        "contract": "contracts/LPStacking.sol:LPStaking",
        "label": "__gap",
        "offset": 0,
        "slot": "15",
        "type": "t_array(t_uint256)50_storage"
      },
      {
        "astId": 1722,
        "contract": "contracts/LPStacking.sol:LPStaking",
        "label": "__gap",
        "offset": 0,
        "slot": "65",
        "type": "t_array(t_uint256)50_storage"
      },
      {
        "astId": 39,
        "contract": "contracts/LPStacking.sol:LPStaking",
        "label": "_roles",
        "offset": 0,
        "slot": "115",
        "type": "t_mapping(t_bytes32,t_struct(RoleData)34_storage)"
      },
      {
        "astId": 327,
        "contract": "contracts/LPStacking.sol:LPStaking",
        "label": "__gap",
        "offset": 0,
        "slot": "116",
        "type": "t_array(t_uint256)49_storage"
      }
    ],
    "types": {
      "t_address": {
        "encoding": "inplace",
        "label": "address",
        "numberOfBytes": "20"
      },
      "t_array(t_uint256)49_storage": {
        "base": "t_uint256",
        "encoding": "inplace",
        "label": "uint256[49]",
        "numberOfBytes": "1568"
      },
      "t_array(t_uint256)50_storage": {
        "base": "t_uint256",
        "encoding": "inplace",
        "label": "uint256[50]",
        "numberOfBytes": "1600"
      },
      "t_bool": {
        "encoding": "inplace",
        "label": "bool",
        "numberOfBytes": "1"
      },
      "t_bytes32": {
        "encoding": "inplace",
        "label": "bytes32",
        "numberOfBytes": "32"
      },
      "t_contract(IERC20)1813": {
        "encoding": "inplace",
        "label": "contract IERC20",
        "numberOfBytes": "20"
      },
      "t_contract(IERC20Upgradeable)4128": {
        "encoding": "inplace",
        "label": "contract IERC20Upgradeable",
        "numberOfBytes": "20"
      },
      "t_contract(IUniswapV2ERC20)2243": {
        "encoding": "inplace",
        "label": "contract IUniswapV2ERC20",
        "numberOfBytes": "20"
      },
      "t_contract(IUniswapV2Factory)2306": {
        "encoding": "inplace",
        "label": "contract IUniswapV2Factory",
        "numberOfBytes": "20"
      },
      "t_contract(IUniswapV2Router02)2944": {
        "encoding": "inplace",
        "label": "contract IUniswapV2Router02",
        "numberOfBytes": "20"
      },
      "t_mapping(t_address,t_bool)": {
        "encoding": "mapping",
        "key": "t_address",
        "label": "mapping(address => bool)",
        "numberOfBytes": "32",
        "value": "t_bool"
      },
      "t_mapping(t_address,t_uint256)": {
        "encoding": "mapping",
        "key": "t_address",
        "label": "mapping(address => uint256)",
        "numberOfBytes": "32",
        "value": "t_uint256"
      },
      "t_mapping(t_bytes32,t_struct(RoleData)34_storage)": {
        "encoding": "mapping",
        "key": "t_bytes32",
        "label": "mapping(bytes32 => struct AccessControlUpgradeable.RoleData)",
        "numberOfBytes": "32",
        "value": "t_struct(RoleData)34_storage"
      },
      "t_struct(RoleData)34_storage": {
        "encoding": "inplace",
        "label": "struct AccessControlUpgradeable.RoleData",
        "members": [
          {
            "astId": 31,
            "contract": "contracts/LPStacking.sol:LPStaking",
            "label": "members",
            "offset": 0,
            "slot": "0",
            "type": "t_mapping(t_address,t_bool)"
          },
          {
            "astId": 33,
            "contract": "contracts/LPStacking.sol:LPStaking",
            "label": "adminRole",
            "offset": 0,
            "slot": "1",
            "type": "t_bytes32"
          }
        ],
        "numberOfBytes": "64"
      },
      "t_uint256": {
        "encoding": "inplace",
        "label": "uint256",
        "numberOfBytes": "32"
      }
    }
  }
}