{
  "address": "0x13944c4039B6e0f7237aDBD105018080e62BaFD6",
  "abi": [
    {
      "anonymous": false,
      "inputs": [
        {
          "indexed": true,
          "internalType": "address",
          "name": "owner",
          "type": "address"
        },
        {
          "indexed": true,
          "internalType": "address",
          "name": "spender",
          "type": "address"
        },
        {
          "indexed": false,
          "internalType": "uint256",
          "name": "value",
          "type": "uint256"
        }
      ],
      "name": "Approval",
      "type": "event"
    },
    {
      "anonymous": false,
      "inputs": [
        {
          "indexed": true,
          "internalType": "bytes32",
          "name": "role",
          "type": "bytes32"
        },
        {
          "indexed": true,
          "internalType": "bytes32",
          "name": "previousAdminRole",
          "type": "bytes32"
        },
        {
          "indexed": true,
          "internalType": "bytes32",
          "name": "newAdminRole",
          "type": "bytes32"
        }
      ],
      "name": "RoleAdminChanged",
      "type": "event"
    },
    {
      "anonymous": false,
      "inputs": [
        {
          "indexed": true,
          "internalType": "bytes32",
          "name": "role",
          "type": "bytes32"
        },
        {
          "indexed": true,
          "internalType": "address",
          "name": "account",
          "type": "address"
        },
        {
          "indexed": true,
          "internalType": "address",
          "name": "sender",
          "type": "address"
        }
      ],
      "name": "RoleGranted",
      "type": "event"
    },
    {
      "anonymous": false,
      "inputs": [
        {
          "indexed": true,
          "internalType": "bytes32",
          "name": "role",
          "type": "bytes32"
        },
        {
          "indexed": true,
          "internalType": "address",
          "name": "account",
          "type": "address"
        },
        {
          "indexed": true,
          "internalType": "address",
          "name": "sender",
          "type": "address"
        }
      ],
      "name": "RoleRevoked",
      "type": "event"
    },
    {
      "anonymous": false,
      "inputs": [
        {
          "indexed": true,
          "internalType": "address",
          "name": "from",
          "type": "address"
        },
        {
          "indexed": true,
          "internalType": "address",
          "name": "to",
          "type": "address"
        },
        {
          "indexed": false,
          "internalType": "uint256",
          "name": "value",
          "type": "uint256"
        }
      ],
      "name": "Transfer",
      "type": "event"
    },
    {
      "inputs": [],
      "name": "ADMIN_ROLE",
      "outputs": [
        {
          "internalType": "bytes32",
          "name": "",
          "type": "bytes32"
        }
      ],
      "stateMutability": "view",
      "type": "function"
    },
    {
      "inputs": [],
      "name": "DEFAULT_ADMIN_ROLE",
      "outputs": [
        {
          "internalType": "bytes32",
          "name": "",
          "type": "bytes32"
        }
      ],
      "stateMutability": "view",
      "type": "function"
    },
    {
      "inputs": [
        {
          "internalType": "address",
          "name": "owner",
          "type": "address"
        },
        {
          "internalType": "address",
          "name": "spender",
          "type": "address"
        }
      ],
      "name": "allowance",
      "outputs": [
        {
          "internalType": "uint256",
          "name": "",
          "type": "uint256"
        }
      ],
      "stateMutability": "view",
      "type": "function"
    },
    {
      "inputs": [
        {
          "internalType": "address",
          "name": "spender",
          "type": "address"
        },
        {
          "internalType": "uint256",
          "name": "amount",
          "type": "uint256"
        }
      ],
      "name": "approve",
      "outputs": [
        {
          "internalType": "bool",
          "name": "",
          "type": "bool"
        }
      ],
      "stateMutability": "nonpayable",
      "type": "function"
    },
    {
      "inputs": [
        {
          "internalType": "address",
          "name": "account",
          "type": "address"
        }
      ],
      "name": "balanceOf",
      "outputs": [
        {
          "internalType": "uint256",
          "name": "",
          "type": "uint256"
        }
      ],
      "stateMutability": "view",
      "type": "function"
    },
    {
      "inputs": [],
      "name": "decimals",
      "outputs": [
        {
          "internalType": "uint8",
          "name": "",
          "type": "uint8"
        }
      ],
      "stateMutability": "view",
      "type": "function"
    },
    {
      "inputs": [
        {
          "internalType": "address",
          "name": "spender",
          "type": "address"
        },
        {
          "internalType": "uint256",
          "name": "subtractedValue",
          "type": "uint256"
        }
      ],
      "name": "decreaseAllowance",
      "outputs": [
        {
          "internalType": "bool",
          "name": "",
          "type": "bool"
        }
      ],
      "stateMutability": "nonpayable",
      "type": "function"
    },
    {
      "inputs": [
        {
          "internalType": "bytes32",
          "name": "role",
          "type": "bytes32"
        }
      ],
      "name": "getRoleAdmin",
      "outputs": [
        {
          "internalType": "bytes32",
          "name": "",
          "type": "bytes32"
        }
      ],
      "stateMutability": "view",
      "type": "function"
    },
    {
      "inputs": [
        {
          "internalType": "address",
          "name": "to",
          "type": "address"
        }
      ],
      "name": "grantAdminRole",
      "outputs": [],
      "stateMutability": "nonpayable",
      "type": "function"
    },
    {
      "inputs": [
        {
          "internalType": "bytes32",
          "name": "role",
          "type": "bytes32"
        },
        {
          "internalType": "address",
          "name": "account",
          "type": "address"
        }
      ],
      "name": "grantRole",
      "outputs": [],
      "stateMutability": "nonpayable",
      "type": "function"
    },
    {
      "inputs": [
        {
          "internalType": "bytes32",
          "name": "role",
          "type": "bytes32"
        },
        {
          "internalType": "address",
          "name": "account",
          "type": "address"
        }
      ],
      "name": "hasRole",
      "outputs": [
        {
          "internalType": "bool",
          "name": "",
          "type": "bool"
        }
      ],
      "stateMutability": "view",
      "type": "function"
    },
    {
      "inputs": [
        {
          "internalType": "address",
          "name": "spender",
          "type": "address"
        },
        {
          "internalType": "uint256",
          "name": "addedValue",
          "type": "uint256"
        }
      ],
      "name": "increaseAllowance",
      "outputs": [
        {
          "internalType": "bool",
          "name": "",
          "type": "bool"
        }
      ],
      "stateMutability": "nonpayable",
      "type": "function"
    },
    {
      "inputs": [],
      "name": "initialize",
      "outputs": [],
      "stateMutability": "nonpayable",
      "type": "function"
    },
    {
      "inputs": [
        {
          "internalType": "address",
          "name": "to",
          "type": "address"
        },
        {
          "internalType": "uint256",
          "name": "amount",
          "type": "uint256"
        }
      ],
      "name": "mint",
      "outputs": [],
      "stateMutability": "nonpayable",
      "type": "function"
    },
    {
      "inputs": [],
      "name": "name",
      "outputs": [
        {
          "internalType": "string",
          "name": "",
          "type": "string"
        }
      ],
      "stateMutability": "view",
      "type": "function"
    },
    {
      "inputs": [
        {
          "internalType": "bytes32",
          "name": "role",
          "type": "bytes32"
        },
        {
          "internalType": "address",
          "name": "account",
          "type": "address"
        }
      ],
      "name": "renounceRole",
      "outputs": [],
      "stateMutability": "nonpayable",
      "type": "function"
    },
    {
      "inputs": [
        {
          "internalType": "bytes32",
          "name": "role",
          "type": "bytes32"
        },
        {
          "internalType": "address",
          "name": "account",
          "type": "address"
        }
      ],
      "name": "revokeRole",
      "outputs": [],
      "stateMutability": "nonpayable",
      "type": "function"
    },
    {
      "inputs": [
        {
          "internalType": "bytes4",
          "name": "interfaceId",
          "type": "bytes4"
        }
      ],
      "name": "supportsInterface",
      "outputs": [
        {
          "internalType": "bool",
          "name": "",
          "type": "bool"
        }
      ],
      "stateMutability": "view",
      "type": "function"
    },
    {
      "inputs": [],
      "name": "symbol",
      "outputs": [
        {
          "internalType": "string",
          "name": "",
          "type": "string"
        }
      ],
      "stateMutability": "view",
      "type": "function"
    },
    {
      "inputs": [],
      "name": "totalSupply",
      "outputs": [
        {
          "internalType": "uint256",
          "name": "",
          "type": "uint256"
        }
      ],
      "stateMutability": "view",
      "type": "function"
    },
    {
      "inputs": [
        {
          "internalType": "address",
          "name": "to",
          "type": "address"
        },
        {
          "internalType": "uint256",
          "name": "amount",
          "type": "uint256"
        }
      ],
      "name": "transfer",
      "outputs": [
        {
          "internalType": "bool",
          "name": "",
          "type": "bool"
        }
      ],
      "stateMutability": "nonpayable",
      "type": "function"
    },
    {
      "inputs": [
        {
          "internalType": "address",
          "name": "from",
          "type": "address"
        },
        {
          "internalType": "address",
          "name": "to",
          "type": "address"
        },
        {
          "internalType": "uint256",
          "name": "amount",
          "type": "uint256"
        }
      ],
      "name": "transferFrom",
      "outputs": [
        {
          "internalType": "bool",
          "name": "",
          "type": "bool"
        }
      ],
      "stateMutability": "nonpayable",
      "type": "function"
    },
    {
      "inputs": [],
      "name": "withdraw",
      "outputs": [],
      "stateMutability": "nonpayable",
      "type": "function"
    }
  ],
  "transactionHash": "0xcf6b90060c4dfb8caf8a20297614bb362759437d9876b91e625255382e590867",
  "args": [],
  "numDeployments": 2,
  "solcInputHash": "759e0f159a0ec94cbd5a4ef72b269fc5",
  "bytecode": "0x608060405234801561001057600080fd5b506114a4806100206000396000f3fe608060405234801561001057600080fd5b506004361061014d5760003560e01c806340c10f19116100c3578063a217fddf1161007c578063a217fddf146102b0578063a457c2d7146102b8578063a9059cbb146102cb578063c634b78e146102de578063d547741f146102f1578063dd62ed3e1461030457600080fd5b806340c10f191461023c57806370a082311461024f57806375b238fc146102785780638129fc1c1461028d57806391d148541461029557806395d89b41146102a857600080fd5b8063248a9ca311610115578063248a9ca3146101c75780632f2ff15d146101ea578063313ce567146101ff57806336568abe1461020e57806339509351146102215780633ccfd60b1461023457600080fd5b806301ffc9a71461015257806306fdde031461017a578063095ea7b31461018f57806318160ddd146101a257806323b872dd146101b4575b600080fd5b61016561016036600461112f565b61033d565b60405190151581526020015b60405180910390f35b610182610374565b6040516101719190611185565b61016561019d3660046111d4565b610406565b6035545b604051908152602001610171565b6101656101c23660046111fe565b61041e565b6101a66101d536600461123a565b60009081526097602052604090206001015490565b6101fd6101f8366004611253565b610442565b005b60405160128152602001610171565b6101fd61021c366004611253565b61046d565b61016561022f3660046111d4565b6104f0565b6101fd61052f565b6101fd61024a3660046111d4565b6105a8565b6101a661025d36600461127f565b6001600160a01b031660009081526033602052604090205490565b6101a660008051602061144f83398151915281565b6101fd6105cb565b6101656102a3366004611253565b610715565b610182610740565b6101a6600081565b6101656102c63660046111d4565b61074f565b6101656102d93660046111d4565b6107e1565b6101fd6102ec36600461127f565b6107ef565b6101fd6102ff366004611253565b610820565b6101a661031236600461129a565b6001600160a01b03918216600090815260346020908152604080832093909416825291909152205490565b60006001600160e01b03198216637965db0b60e01b148061036e57506301ffc9a760e01b6001600160e01b03198316145b92915050565b606060368054610383906112c4565b80601f01602080910402602001604051908101604052809291908181526020018280546103af906112c4565b80156103fc5780601f106103d1576101008083540402835291602001916103fc565b820191906000526020600020905b8154815290600101906020018083116103df57829003601f168201915b5050505050905090565b600033610414818585610846565b5060019392505050565b60003361042c85828561096a565b6104378585856109fc565b506001949350505050565b60008281526097602052604090206001015461045e8133610bca565b6104688383610c2e565b505050565b6001600160a01b03811633146104e25760405162461bcd60e51b815260206004820152602f60248201527f416363657373436f6e74726f6c3a2063616e206f6e6c792072656e6f756e636560448201526e103937b632b9903337b91039b2b63360891b60648201526084015b60405180910390fd5b6104ec8282610cb4565b5050565b3360008181526034602090815260408083206001600160a01b0387168452909152812054909190610414908290869061052a908790611314565b610846565b60008051602061144f8339815191526105488133610bca565b60c9546040516000916001600160a01b03169047908381818185875af1925050503d8060008114610595576040519150601f19603f3d011682016040523d82523d6000602084013e61059a565b606091505b50509050806104ec57600080fd5b60008051602061144f8339815191526105c18133610bca565b6104688383610d1b565b600054610100900460ff166105e65760005460ff16156105ea565b303b155b61064d5760405162461bcd60e51b815260206004820152602e60248201527f496e697469616c697a61626c653a20636f6e747261637420697320616c72656160448201526d191e481a5b9a5d1a585b1a5e995960921b60648201526084016104d9565b600054610100900460ff1615801561066f576000805461ffff19166101011790555b6106b66040518060400160405280600b81526020016a2932bbb0b9322a37b5b2b760a91b81525060405180604001604052806002815260200161149560f21b815250610dfa565b6106be610e2b565b6106d660008051602061144f83398151915233610e54565b6106ee60008051602061144f83398151915280610e5e565b60c980546001600160a01b031916331790558015610712576000805461ff00191690555b50565b60009182526097602090815260408084206001600160a01b0393909316845291905290205460ff1690565b606060378054610383906112c4565b3360008181526034602090815260408083206001600160a01b0387168452909152812054909190838110156107d45760405162461bcd60e51b815260206004820152602560248201527f45524332303a2064656372656173656420616c6c6f77616e63652062656c6f77604482015264207a65726f60d81b60648201526084016104d9565b6104378286868403610846565b6000336104148185856109fc565b60008051602061144f8339815191526108088133610bca565b6104ec60008051602061144f83398151915283610442565b60008281526097602052604090206001015461083c8133610bca565b6104688383610cb4565b6001600160a01b0383166108a85760405162461bcd60e51b8152602060048201526024808201527f45524332303a20617070726f76652066726f6d20746865207a65726f206164646044820152637265737360e01b60648201526084016104d9565b6001600160a01b0382166109095760405162461bcd60e51b815260206004820152602260248201527f45524332303a20617070726f766520746f20746865207a65726f206164647265604482015261737360f01b60648201526084016104d9565b6001600160a01b0383811660008181526034602090815260408083209487168084529482529182902085905590518481527f8c5be1e5ebec7d5bd14f71427d1e84f3dd0314c0f7b2291e5b200ac8c7c3b925910160405180910390a3505050565b6001600160a01b0383811660009081526034602090815260408083209386168352929052205460001981146109f657818110156109e95760405162461bcd60e51b815260206004820152601d60248201527f45524332303a20696e73756666696369656e7420616c6c6f77616e636500000060448201526064016104d9565b6109f68484848403610846565b50505050565b6001600160a01b038316610a605760405162461bcd60e51b815260206004820152602560248201527f45524332303a207472616e736665722066726f6d20746865207a65726f206164604482015264647265737360d81b60648201526084016104d9565b6001600160a01b038216610ac25760405162461bcd60e51b815260206004820152602360248201527f45524332303a207472616e7366657220746f20746865207a65726f206164647260448201526265737360e81b60648201526084016104d9565b6001600160a01b03831660009081526033602052604090205481811015610b3a5760405162461bcd60e51b815260206004820152602660248201527f45524332303a207472616e7366657220616d6f756e7420657863656564732062604482015265616c616e636560d01b60648201526084016104d9565b6001600160a01b03808516600090815260336020526040808220858503905591851681529081208054849290610b71908490611314565b92505081905550826001600160a01b0316846001600160a01b03167fddf252ad1be2c89b69c2b068fc378daa952ba7f163c4a11628f55a4df523b3ef84604051610bbd91815260200190565b60405180910390a36109f6565b610bd48282610715565b6104ec57610bec816001600160a01b03166014610ea9565b610bf7836020610ea9565b604051602001610c0892919061132c565b60408051601f198184030181529082905262461bcd60e51b82526104d991600401611185565b610c388282610715565b6104ec5760008281526097602090815260408083206001600160a01b03851684529091529020805460ff19166001179055610c703390565b6001600160a01b0316816001600160a01b0316837f2f8788117e7eff1d82e926ec794901d17c78024a50270940304540a733656f0d60405160405180910390a45050565b610cbe8282610715565b156104ec5760008281526097602090815260408083206001600160a01b0385168085529252808320805460ff1916905551339285917ff6391f5c32d9c69d2a47ea670b442974b53935d1edc7fd64eb21e047a839171b9190a45050565b6001600160a01b038216610d715760405162461bcd60e51b815260206004820152601f60248201527f45524332303a206d696e7420746f20746865207a65726f20616464726573730060448201526064016104d9565b8060356000828254610d839190611314565b90915550506001600160a01b03821660009081526033602052604081208054839290610db0908490611314565b90915550506040518181526001600160a01b038316906000907fddf252ad1be2c89b69c2b068fc378daa952ba7f163c4a11628f55a4df523b3ef9060200160405180910390a35050565b600054610100900460ff16610e215760405162461bcd60e51b81526004016104d9906113a1565b6104ec828261104c565b600054610100900460ff16610e525760405162461bcd60e51b81526004016104d9906113a1565b565b6104ec8282610c2e565b600082815260976020526040808220600101805490849055905190918391839186917fbd79b86ffe0ab8e8776151514217cd7cacd52c909f66475c3af44e129f0b00ff9190a4505050565b60606000610eb88360026113ec565b610ec3906002611314565b67ffffffffffffffff811115610edb57610edb61140b565b6040519080825280601f01601f191660200182016040528015610f05576020820181803683370190505b509050600360fc1b81600081518110610f2057610f20611421565b60200101906001600160f81b031916908160001a905350600f60fb1b81600181518110610f4f57610f4f611421565b60200101906001600160f81b031916908160001a9053506000610f738460026113ec565b610f7e906001611314565b90505b6001811115610ff6576f181899199a1a9b1b9c1cb0b131b232b360811b85600f1660108110610fb257610fb2611421565b1a60f81b828281518110610fc857610fc8611421565b60200101906001600160f81b031916908160001a90535060049490941c93610fef81611437565b9050610f81565b5083156110455760405162461bcd60e51b815260206004820181905260248201527f537472696e67733a20686578206c656e67746820696e73756666696369656e7460448201526064016104d9565b9392505050565b600054610100900460ff166110735760405162461bcd60e51b81526004016104d9906113a1565b8151611086906036906020850190611096565b5080516104689060379060208401905b8280546110a2906112c4565b90600052602060002090601f0160209004810192826110c4576000855561110a565b82601f106110dd57805160ff191683800117855561110a565b8280016001018555821561110a579182015b8281111561110a5782518255916020019190600101906110ef565b5061111692915061111a565b5090565b5b80821115611116576000815560010161111b565b60006020828403121561114157600080fd5b81356001600160e01b03198116811461104557600080fd5b60005b8381101561117457818101518382015260200161115c565b838111156109f65750506000910152565b60208152600082518060208401526111a4816040850160208701611159565b601f01601f19169190910160400192915050565b80356001600160a01b03811681146111cf57600080fd5b919050565b600080604083850312156111e757600080fd5b6111f0836111b8565b946020939093013593505050565b60008060006060848603121561121357600080fd5b61121c846111b8565b925061122a602085016111b8565b9150604084013590509250925092565b60006020828403121561124c57600080fd5b5035919050565b6000806040838503121561126657600080fd5b82359150611276602084016111b8565b90509250929050565b60006020828403121561129157600080fd5b611045826111b8565b600080604083850312156112ad57600080fd5b6112b6836111b8565b9150611276602084016111b8565b600181811c908216806112d857607f821691505b6020821081036112f857634e487b7160e01b600052602260045260246000fd5b50919050565b634e487b7160e01b600052601160045260246000fd5b60008219821115611327576113276112fe565b500190565b7f416363657373436f6e74726f6c3a206163636f756e7420000000000000000000815260008351611364816017850160208801611159565b7001034b99036b4b9b9b4b733903937b6329607d1b6017918401918201528351611395816028840160208801611159565b01602801949350505050565b6020808252602b908201527f496e697469616c697a61626c653a20636f6e7472616374206973206e6f74206960408201526a6e697469616c697a696e6760a81b606082015260800190565b6000816000190483118215151615611406576114066112fe565b500290565b634e487b7160e01b600052604160045260246000fd5b634e487b7160e01b600052603260045260246000fd5b600081611446576114466112fe565b50600019019056fea49807205ce4d355092ef5a8a18f56e8913cf4a201fbe287825b095693c21775a2646970667358221220db0fc88d0358cbd74f86bbed90a795249556063fdcc0be18b3f9367108833e6164736f6c634300080d0033",
  "devdoc": {
    "kind": "dev",
    "methods": {
      "allowance(address,address)": {
        "details": "See {IERC20-allowance}."
      },
      "approve(address,uint256)": {
        "details": "See {IERC20-approve}. NOTE: If `amount` is the maximum `uint256`, the allowance is not updated on `transferFrom`. This is semantically equivalent to an infinite approval. Requirements: - `spender` cannot be the zero address."
      },
      "balanceOf(address)": {
        "details": "See {IERC20-balanceOf}."
      },
      "decreaseAllowance(address,uint256)": {
        "details": "Atomically decreases the allowance granted to `spender` by the caller. This is an alternative to {approve} that can be used as a mitigation for problems described in {IERC20-approve}. Emits an {Approval} event indicating the updated allowance. Requirements: - `spender` cannot be the zero address. - `spender` must have allowance for the caller of at least `subtractedValue`."
      },
      "getRoleAdmin(bytes32)": {
        "details": "Returns the admin role that controls `role`. See {grantRole} and {revokeRole}. To change a role's admin, use {_setRoleAdmin}."
      },
      "grantRole(bytes32,address)": {
        "details": "Grants `role` to `account`. If `account` had not been already granted `role`, emits a {RoleGranted} event. Requirements: - the caller must have ``role``'s admin role."
      },
      "hasRole(bytes32,address)": {
        "details": "Returns `true` if `account` has been granted `role`."
      },
      "increaseAllowance(address,uint256)": {
        "details": "Atomically increases the allowance granted to `spender` by the caller. This is an alternative to {approve} that can be used as a mitigation for problems described in {IERC20-approve}. Emits an {Approval} event indicating the updated allowance. Requirements: - `spender` cannot be the zero address."
      },
      "mint(address,uint256)": {
        "params": {
          "amount": "is the amount of tokens to be minted"
        }
      },
      "name()": {
        "details": "Returns the name of the token."
      },
      "renounceRole(bytes32,address)": {
        "details": "Revokes `role` from the calling account. Roles are often managed via {grantRole} and {revokeRole}: this function's purpose is to provide a mechanism for accounts to lose their privileges if they are compromised (such as when a trusted device is misplaced). If the calling account had been revoked `role`, emits a {RoleRevoked} event. Requirements: - the caller must be `account`."
      },
      "revokeRole(bytes32,address)": {
        "details": "Revokes `role` from `account`. If `account` had been granted `role`, emits a {RoleRevoked} event. Requirements: - the caller must have ``role``'s admin role."
      },
      "supportsInterface(bytes4)": {
        "details": "See {IERC165-supportsInterface}."
      },
      "symbol()": {
        "details": "Returns the symbol of the token, usually a shorter version of the name."
      },
      "totalSupply()": {
        "details": "See {IERC20-totalSupply}."
      },
      "transfer(address,uint256)": {
        "details": "See {IERC20-transfer}. Requirements: - `to` cannot be the zero address. - the caller must have a balance of at least `amount`."
      },
      "transferFrom(address,address,uint256)": {
        "details": "See {IERC20-transferFrom}. Emits an {Approval} event indicating the updated allowance. This is not required by the EIP. See the note at the beginning of {ERC20}. NOTE: Does not update the allowance if the current allowance is the maximum `uint256`. Requirements: - `from` and `to` cannot be the zero address. - `from` must have a balance of at least `amount`. - the caller must have allowance for ``from``'s tokens of at least `amount`."
      }
    },
    "version": 1
  },
  "userdoc": {
    "kind": "user",
    "methods": {
      "ADMIN_ROLE()": {
        "notice": "CONSTANTS"
      },
      "decimals()": {
        "notice": "Function that overrides the ERC20 decimals to set decimals in 0This sets the min quantity of tokens in 1"
      },
      "grantAdminRole(address)": {
        "notice": "Function that allow the admin to set other admins"
      },
      "initialize()": {
        "notice": "Constructor function that initialice the name and symbol of the token"
      },
      "mint(address,uint256)": {
        "notice": "Function that allows the admin mint the token"
      },
      "withdraw()": {
        "notice": "Function that allow the admin to withdraw all the funds"
      }
    },
    "version": 1
  },
  "storageLayout": {
    "storage": [
      {
        "astId": 408,
        "contract": "contracts/RewardToken.sol:RewardToken",
        "label": "_initialized",
        "offset": 0,
        "slot": "0",
        "type": "t_bool"
      },
      {
        "astId": 411,
        "contract": "contracts/RewardToken.sol:RewardToken",
        "label": "_initializing",
        "offset": 1,
        "slot": "0",
        "type": "t_bool"
      },
      {
        "astId": 1475,
        "contract": "contracts/RewardToken.sol:RewardToken",
        "label": "__gap",
        "offset": 0,
        "slot": "1",
        "type": "t_array(t_uint256)50_storage"
      },
      {
        "astId": 494,
        "contract": "contracts/RewardToken.sol:RewardToken",
        "label": "_balances",
        "offset": 0,
        "slot": "51",
        "type": "t_mapping(t_address,t_uint256)"
      },
      {
        "astId": 500,
        "contract": "contracts/RewardToken.sol:RewardToken",
        "label": "_allowances",
        "offset": 0,
        "slot": "52",
        "type": "t_mapping(t_address,t_mapping(t_address,t_uint256))"
      },
      {
        "astId": 502,
        "contract": "contracts/RewardToken.sol:RewardToken",
        "label": "_totalSupply",
        "offset": 0,
        "slot": "53",
        "type": "t_uint256"
      },
      {
        "astId": 504,
        "contract": "contracts/RewardToken.sol:RewardToken",
        "label": "_name",
        "offset": 0,
        "slot": "54",
        "type": "t_string_storage"
      },
      {
        "astId": 506,
        "contract": "contracts/RewardToken.sol:RewardToken",
        "label": "_symbol",
        "offset": 0,
        "slot": "55",
        "type": "t_string_storage"
      },
      {
        "astId": 1087,
        "contract": "contracts/RewardToken.sol:RewardToken",
        "label": "__gap",
        "offset": 0,
        "slot": "56",
        "type": "t_array(t_uint256)45_storage"
      },
      {
        "astId": 1722,
        "contract": "contracts/RewardToken.sol:RewardToken",
        "label": "__gap",
        "offset": 0,
        "slot": "101",
        "type": "t_array(t_uint256)50_storage"
      },
      {
        "astId": 39,
        "contract": "contracts/RewardToken.sol:RewardToken",
        "label": "_roles",
        "offset": 0,
        "slot": "151",
        "type": "t_mapping(t_bytes32,t_struct(RoleData)34_storage)"
      },
      {
        "astId": 327,
        "contract": "contracts/RewardToken.sol:RewardToken",
        "label": "__gap",
        "offset": 0,
        "slot": "152",
        "type": "t_array(t_uint256)49_storage"
      },
      {
        "astId": 3573,
        "contract": "contracts/RewardToken.sol:RewardToken",
        "label": "recipientAddress",
        "offset": 0,
        "slot": "201",
        "type": "t_address"
      }
    ],
    "types": {
      "t_address": {
        "encoding": "inplace",
        "label": "address",
        "numberOfBytes": "20"
      },
      "t_array(t_uint256)45_storage": {
        "base": "t_uint256",
        "encoding": "inplace",
        "label": "uint256[45]",
        "numberOfBytes": "1440"
      },
      "t_array(t_uint256)49_storage": {
        "base": "t_uint256",
        "encoding": "inplace",
        "label": "uint256[49]",
        "numberOfBytes": "1568"
      },
      "t_array(t_uint256)50_storage": {
        "base": "t_uint256",
        "encoding": "inplace",
        "label": "uint256[50]",
        "numberOfBytes": "1600"
      },
      "t_bool": {
        "encoding": "inplace",
        "label": "bool",
        "numberOfBytes": "1"
      },
      "t_bytes32": {
        "encoding": "inplace",
        "label": "bytes32",
        "numberOfBytes": "32"
      },
      "t_mapping(t_address,t_bool)": {
        "encoding": "mapping",
        "key": "t_address",
        "label": "mapping(address => bool)",
        "numberOfBytes": "32",
        "value": "t_bool"
      },
      "t_mapping(t_address,t_mapping(t_address,t_uint256))": {
        "encoding": "mapping",
        "key": "t_address",
        "label": "mapping(address => mapping(address => uint256))",
        "numberOfBytes": "32",
        "value": "t_mapping(t_address,t_uint256)"
      },
      "t_mapping(t_address,t_uint256)": {
        "encoding": "mapping",
        "key": "t_address",
        "label": "mapping(address => uint256)",
        "numberOfBytes": "32",
        "value": "t_uint256"
      },
      "t_mapping(t_bytes32,t_struct(RoleData)34_storage)": {
        "encoding": "mapping",
        "key": "t_bytes32",
        "label": "mapping(bytes32 => struct AccessControlUpgradeable.RoleData)",
        "numberOfBytes": "32",
        "value": "t_struct(RoleData)34_storage"
      },
      "t_string_storage": {
        "encoding": "bytes",
        "label": "string",
        "numberOfBytes": "32"
      },
      "t_struct(RoleData)34_storage": {
        "encoding": "inplace",
        "label": "struct AccessControlUpgradeable.RoleData",
        "members": [
          {
            "astId": 31,
            "contract": "contracts/RewardToken.sol:RewardToken",
            "label": "members",
            "offset": 0,
            "slot": "0",
            "type": "t_mapping(t_address,t_bool)"
          },
          {
            "astId": 33,
            "contract": "contracts/RewardToken.sol:RewardToken",
            "label": "adminRole",
            "offset": 0,
            "slot": "1",
            "type": "t_bytes32"
          }
        ],
        "numberOfBytes": "64"
      },
      "t_uint256": {
        "encoding": "inplace",
        "label": "uint256",
        "numberOfBytes": "32"
      }
    }
  }
}